{
  "contractName": "FundFactory",
  "abi": [
    {
      "inputs": [],
      "payable": false,
      "stateMutability": "nonpayable",
      "type": "constructor"
    },
    {
      "anonymous": false,
      "inputs": [
        {
          "indexed": true,
          "name": "owner",
          "type": "address"
        },
        {
          "indexed": true,
          "name": "fund",
          "type": "address"
        },
        {
          "indexed": true,
          "name": "uid",
          "type": "uint256"
        }
      ],
      "name": "CreatedFund",
      "type": "event"
    },
    {
      "anonymous": false,
      "inputs": [
        {
          "indexed": true,
          "name": "owner",
          "type": "address"
        },
        {
          "indexed": true,
          "name": "fund",
          "type": "address"
        }
      ],
      "name": "AllFundsDeath",
      "type": "event"
    },
    {
      "anonymous": false,
      "inputs": [
        {
          "indexed": false,
          "name": "position",
          "type": "uint256"
        }
      ],
      "name": "log",
      "type": "event"
    },
    {
      "constant": true,
      "inputs": [],
      "name": "getAllFundUids",
      "outputs": [
        {
          "name": "",
          "type": "uint256"
        }
      ],
      "payable": false,
      "stateMutability": "view",
      "type": "function"
    },
    {
      "constant": true,
      "inputs": [
        {
          "name": "_fundOwner",
          "type": "address"
        }
      ],
      "name": "getFundForOwner",
      "outputs": [
        {
          "name": "",
          "type": "uint256[]"
        }
      ],
      "payable": false,
      "stateMutability": "view",
      "type": "function"
    },
    {
      "constant": true,
      "inputs": [
        {
          "name": "_fundId",
          "type": "uint256"
        }
      ],
      "name": "getFundDetails",
      "outputs": [
        {
          "name": "",
          "type": "address"
        },
        {
          "name": "",
          "type": "address"
        }
      ],
      "payable": false,
      "stateMutability": "view",
      "type": "function"
    },
    {
      "constant": true,
      "inputs": [],
      "name": "getFactoryOwner",
      "outputs": [
        {
          "name": "",
          "type": "address"
        }
      ],
      "payable": false,
      "stateMutability": "view",
      "type": "function"
    },
    {
      "constant": true,
      "inputs": [],
      "name": "getRebabalncer",
      "outputs": [
        {
          "name": "",
          "type": "address"
        }
      ],
      "payable": false,
      "stateMutability": "view",
      "type": "function"
    },
    {
      "constant": false,
      "inputs": [
        {
          "name": "_newRebalancer",
          "type": "address"
        }
      ],
      "name": "updateRebalancer",
      "outputs": [],
      "payable": false,
      "stateMutability": "nonpayable",
      "type": "function"
    },
    {
      "constant": false,
      "inputs": [
        {
          "name": "_tokenAddresses",
          "type": "address[100]"
        },
        {
          "name": "_percentages",
          "type": "int128[100]"
        },
        {
          "name": "_rebalancePeriod",
          "type": "uint256"
        }
      ],
      "name": "createFund",
      "outputs": [
        {
          "name": "",
          "type": "address"
        },
        {
          "name": "",
          "type": "uint256"
        }
      ],
      "payable": true,
      "stateMutability": "payable",
      "type": "function"
    },
    {
      "constant": false,
      "inputs": [],
      "name": "killFunds",
      "outputs": [],
      "payable": false,
      "stateMutability": "nonpayable",
      "type": "function"
    }
  ],
  "bytecode": "0x6080604052600160025534801561001557600080fd5b50336000806101000a81548173ffffffffffffffffffffffffffffffffffffffff021916908373ffffffffffffffffffffffffffffffffffffffff16021790555061287d806100656000396000f3fe60806040526004361061008e576000357c0100000000000000000000000000000000000000000000000000000000900463ffffffff16806314d900c7146100935780633b8d4c3b1461018d5780637de4bb9d146101b85780638aa9dd16146101cf5780638f144ea2146102265780639910cf03146102d4578063b046a4491461037a578063e09bda6b146103cb575b600080fd5b61014460048036036119208110156100aa57600080fd5b8101908080610c8001906064806020026040519081016040528092919082606460200280828437600081840152601f19601f820116905080830192505050505050919291929080610c8001906064806020026040519081016040528092919082606460200280828437600081840152601f19601f820116905080830192505050505050919291929080359060200190929190505050610422565b604051808373ffffffffffffffffffffffffffffffffffffffff1673ffffffffffffffffffffffffffffffffffffffff1681526020018281526020019250505060405180910390f35b34801561019957600080fd5b506101a261074a565b6040518082815260200191505060405180910390f35b3480156101c457600080fd5b506101cd610757565b005b3480156101db57600080fd5b506101e46109b4565b604051808273ffffffffffffffffffffffffffffffffffffffff1673ffffffffffffffffffffffffffffffffffffffff16815260200191505060405180910390f35b34801561023257600080fd5b5061025f6004803603602081101561024957600080fd5b81019080803590602001909291905050506109de565b604051808373ffffffffffffffffffffffffffffffffffffffff1673ffffffffffffffffffffffffffffffffffffffff1681526020018273ffffffffffffffffffffffffffffffffffffffff1673ffffffffffffffffffffffffffffffffffffffff1681526020019250505060405180910390f35b3480156102e057600080fd5b50610323600480360360208110156102f757600080fd5b81019080803573ffffffffffffffffffffffffffffffffffffffff169060200190929190505050610a58565b6040518080602001828103825283818151815260200191508051906020019060200280838360005b8381101561036657808201518184015260208101905061034b565b505050509050019250505060405180910390f35b34801561038657600080fd5b506103c96004803603602081101561039d57600080fd5b81019080803573ffffffffffffffffffffffffffffffffffffffff169060200190929190505050610aef565b005b3480156103d757600080fd5b506103e0610bf7565b604051808273ffffffffffffffffffffffffffffffffffffffff1673ffffffffffffffffffffffffffffffffffffffff16815260200191505060405180910390f35b600080600085853386610433610c20565b8085606460200280838360005b8381101561045b578082015181840152602081019050610440565b5050505090500184606460200280838360005b8381101561048957808201518184015260208101905061046e565b505050509050018373ffffffffffffffffffffffffffffffffffffffff1673ffffffffffffffffffffffffffffffffffffffff168152602001828152602001945050505050604051809103906000f0801580156104ea573d6000803e3d6000fd5b5090508073ffffffffffffffffffffffffffffffffffffffff1663e1c7392a346040518263ffffffff167c01000000000000000000000000000000000000000000000000000000000281526004016000604051808303818588803b15801561055157600080fd5b505af1158015610565573d6000803e3d6000fd5b5050505050600060025490506060604051908101604052808281526020018373ffffffffffffffffffffffffffffffffffffffff1681526020013373ffffffffffffffffffffffffffffffffffffffff16815250600360008381526020019081526020016000206000820151816000015560208201518160010160006101000a81548173ffffffffffffffffffffffffffffffffffffffff021916908373ffffffffffffffffffffffffffffffffffffffff16021790555060408201518160020160006101000a81548173ffffffffffffffffffffffffffffffffffffffff021916908373ffffffffffffffffffffffffffffffffffffffff160217905550905050600460003373ffffffffffffffffffffffffffffffffffffffff1673ffffffffffffffffffffffffffffffffffffffff168152602001908152602001600020819080600181540180825580915050906001820390600052602060002001600090919290919091505550600160025401600281905550808273ffffffffffffffffffffffffffffffffffffffff163373ffffffffffffffffffffffffffffffffffffffff167f957e1d233acb5ca4d772fbc51f89ebe8eb8de604916c546b70ceeb54b0f5690e60405160405180910390a48181819150935093505050935093915050565b6000600160025403905090565b6000809054906101000a900473ffffffffffffffffffffffffffffffffffffffff1673ffffffffffffffffffffffffffffffffffffffff163373ffffffffffffffffffffffffffffffffffffffff1614151561081b576040517f08c379a000000000000000000000000000000000000000000000000000000000815260040180806020018281038252600d8152602001807f4163636573732044656e6965640000000000000000000000000000000000000081525060200191505060405180910390fd5b6000600190505b6002548110156109b1576003600082815260200190815260200160002060010160009054906101000a900473ffffffffffffffffffffffffffffffffffffffff1673ffffffffffffffffffffffffffffffffffffffff166307040ea66040518163ffffffff167c0100000000000000000000000000000000000000000000000000000000028152600401600060405180830381600087803b1580156108c657600080fd5b505af11580156108da573d6000803e3d6000fd5b505050506003600082815260200190815260200160002060010160009054906101000a900473ffffffffffffffffffffffffffffffffffffffff1673ffffffffffffffffffffffffffffffffffffffff166003600083815260200190815260200160002060020160009054906101000a900473ffffffffffffffffffffffffffffffffffffffff1673ffffffffffffffffffffffffffffffffffffffff167f1e1487d45e4cf2f221e1ca5e99e1c5faf85306c328af4d362874c02a873067df60405160405180910390a38080600101915050610822565b50565b6000600160009054906101000a900473ffffffffffffffffffffffffffffffffffffffff16905090565b6000806003600084815260200190815260200160002060020160009054906101000a900473ffffffffffffffffffffffffffffffffffffffff166003600085815260200190815260200160002060010160009054906101000a900473ffffffffffffffffffffffffffffffffffffffff1691509150915091565b6060600460008373ffffffffffffffffffffffffffffffffffffffff1673ffffffffffffffffffffffffffffffffffffffff168152602001908152602001600020805480602002602001604051908101604052809291908181526020018280548015610ae357602002820191906000526020600020905b815481526020019060010190808311610acf575b50505050509050919050565b6000809054906101000a900473ffffffffffffffffffffffffffffffffffffffff1673ffffffffffffffffffffffffffffffffffffffff163373ffffffffffffffffffffffffffffffffffffffff16141515610bb3576040517f08c379a000000000000000000000000000000000000000000000000000000000815260040180806020018281038252600d8152602001807f4163636573732044656e6965640000000000000000000000000000000000000081525060200191505060405180910390fd5b80600160006101000a81548173ffffffffffffffffffffffffffffffffffffffff021916908373ffffffffffffffffffffffffffffffffffffffff16021790555050565b60008060009054906101000a900473ffffffffffffffffffffffffffffffffffffffff16905090565b604051611c2180610c318339019056fe60806040526000609a60006101000a81548160ff0219169083151502179055503480156200002c57600080fd5b506040516119408062001c2183398101806040526119408110156200005057600080fd5b81019080919082610c8001919082610c8001805190602001909291908051906020019092919050505033600160006101000a81548173ffffffffffffffffffffffffffffffffffffffff021916908373ffffffffffffffffffffffffffffffffffffffff160217905550816000806101000a81548173ffffffffffffffffffffffffffffffffffffffff021916908373ffffffffffffffffffffffffffffffffffffffff160217905550806098819055508360029060646200011492919062000133565b5082606690606462000128929190620001b5565b50505050506200030e565b8260648101928215620001a2579160200282015b82811115620001a15782518260006101000a81548173ffffffffffffffffffffffffffffffffffffffff021916908373ffffffffffffffffffffffffffffffffffffffff1602179055509160200191906001019062000147565b5b509050620001b1919062000286565b5090565b826064600101600290048101928215620002735791602002820160005b838211156200023357835183826101000a8154816fffffffffffffffffffffffffffffffff0219169083600f0b6fffffffffffffffffffffffffffffffff1602179055509260200192601001602081600f01049283019260010302620001d2565b8015620002715782816101000a8154906fffffffffffffffffffffffffffffffff0219169055601001602081600f0104928301926001030262000233565b505b509050620002829190620002cc565b5090565b620002c991905b80821115620002c557600081816101000a81549073ffffffffffffffffffffffffffffffffffffffff0219169055506001016200028d565b5090565b90565b6200030b91905b808211156200030757600081816101000a8154906fffffffffffffffffffffffffffffffff021916905550600101620002d3565b5090565b90565b611903806200031e6000396000f3fe6080604052600436106100ba576000357c0100000000000000000000000000000000000000000000000000000000900463ffffffff16806302367bca1461018d57806307040ea6146102435780630f1859361461025a57806342595248146102a9578063615bab6e146102d45780637d7c2a1c146102ff578063893d20e8146103165780639f85adf11461036d578063aa6ca80814610384578063c9bf656114610406578063e1c7392a14610441578063e59931bc1461044b575b609a60009054906101000a900460ff1615151561018b576040517f08c379a00000000000000000000000000000000000000000000000000000000081526004018080602001828103825260568152602001807f5468652066756e642069732064697361626c65642e20496620796f752061726581526020017f20746865206f776e657220796f752063616e2072652d656e61626c652074686581526020017f2066756e6420617420796f7572206f776e207269736b0000000000000000000081525060600191505060405180910390fd5b005b34801561019957600080fd5b5061024160048036036119008110156101b157600080fd5b8101908080610c8001906064806020026040519081016040528092919082606460200280828437600081840152601f19601f820116905080830192505050505050919291929080610c8001906064806020026040519081016040528092919082606460200280828437600081840152601f19601f8201169050808301925050505050509192919290505050610476565b005b34801561024f57600080fd5b50610258610729565b005b34801561026657600080fd5b506102936004803603602081101561027d57600080fd5b8101908080359060200190929190505050610d9c565b6040518082815260200191505060405180910390f35b3480156102b557600080fd5b506102be610ea9565b6040518082815260200191505060405180910390f35b3480156102e057600080fd5b506102e9610eb3565b6040518082815260200191505060405180910390f35b34801561030b57600080fd5b50610314610ebd565b005b34801561032257600080fd5b5061032b61100d565b604051808273ffffffffffffffffffffffffffffffffffffffff1673ffffffffffffffffffffffffffffffffffffffff16815260200191505060405180910390f35b34801561037957600080fd5b50610382611036565b005b34801561039057600080fd5b50610399611225565b6040518083606460200280838360005b838110156103c45780820151818401526020810190506103a9565b5050505090500182606460200280838360005b838110156103f25780820151818401526020810190506103d7565b505050509050019250505060405180910390f35b34801561041257600080fd5b5061043f6004803603602081101561042957600080fd5b810190808035906020019092919050505061131b565b005b6104496114ba565b005b34801561045757600080fd5b506104606116b8565b6040518082815260200191505060405180910390f35b609a60009054906101000a900460ff16151515610547576040517f08c379a00000000000000000000000000000000000000000000000000000000081526004018080602001828103825260568152602001807f5468652066756e642069732064697361626c65642e20496620796f752061726581526020017f20746865206f776e657220796f752063616e2072652d656e61626c652074686581526020017f2066756e6420617420796f7572206f776e207269736b0000000000000000000081525060600191505060405180910390fd5b6000809054906101000a900473ffffffffffffffffffffffffffffffffffffffff1673ffffffffffffffffffffffffffffffffffffffff163373ffffffffffffffffffffffffffffffffffffffff1614806105ef5750600160009054906101000a900473ffffffffffffffffffffffffffffffffffffffff1673ffffffffffffffffffffffffffffffffffffffff163373ffffffffffffffffffffffffffffffffffffffff16145b1515610663576040517f08c379a000000000000000000000000000000000000000000000000000000000815260040180806020018281038252600d8152602001807f4163636573732044656e6965640000000000000000000000000000000000000081525060200191505060405180910390fd5b600081600060648110151561067457fe5b6020020151600f0b141515156106f2576040517f08c379a000000000000000000000000000000000000000000000000000000000815260040180806020018281038252601e8152602001807f45746820616d6f756e7420696e2066756e642063616e6e6f742062652030000081525060200191505060405180910390fd5b8160029060646107039291906116c6565b50806066906064610715929190611743565b5061071e611036565b426099819055505050565b6000809054906101000a900473ffffffffffffffffffffffffffffffffffffffff1673ffffffffffffffffffffffffffffffffffffffff163373ffffffffffffffffffffffffffffffffffffffff1614806107d15750600160009054906101000a900473ffffffffffffffffffffffffffffffffffffffff1673ffffffffffffffffffffffffffffffffffffffff163373ffffffffffffffffffffffffffffffffffffffff16145b1515610845576040517f08c379a000000000000000000000000000000000000000000000000000000000815260040180806020018281038252600d8152602001807f4163636573732044656e6965640000000000000000000000000000000000000081525060200191505060405180910390fd5b6000600190505b6064811015610c8657600073ffffffffffffffffffffffffffffffffffffffff1660028260648110151561087c57fe5b0160009054906101000a900473ffffffffffffffffffffffffffffffffffffffff1673ffffffffffffffffffffffffffffffffffffffff1614156108bf57610c86565b60006002826064811015156108d057fe5b0160009054906101000a900473ffffffffffffffffffffffffffffffffffffffff1673ffffffffffffffffffffffffffffffffffffffff166370a08231306040518263ffffffff167c0100000000000000000000000000000000000000000000000000000000028152600401808273ffffffffffffffffffffffffffffffffffffffff1673ffffffffffffffffffffffffffffffffffffffff16815260200191505060206040518083038186803b15801561098a57600080fd5b505afa15801561099e573d6000803e3d6000fd5b505050506040513d60208110156109b457600080fd5b810190808051906020019092919050505090506002826064811015156109d657fe5b0160009054906101000a900473ffffffffffffffffffffffffffffffffffffffff1673ffffffffffffffffffffffffffffffffffffffff1663a9059cbb6000809054906101000a900473ffffffffffffffffffffffffffffffffffffffff16836040518363ffffffff167c0100000000000000000000000000000000000000000000000000000000028152600401808373ffffffffffffffffffffffffffffffffffffffff1673ffffffffffffffffffffffffffffffffffffffff16815260200182815260200192505050602060405180830381600087803b158015610abb57600080fd5b505af1158015610acf573d6000803e3d6000fd5b505050506040513d6020811015610ae557600080fd5b8101908080519060200190929190505050506000600283606481101515610b0857fe5b0160009054906101000a900473ffffffffffffffffffffffffffffffffffffffff1673ffffffffffffffffffffffffffffffffffffffff166370a08231306040518263ffffffff167c0100000000000000000000000000000000000000000000000000000000028152600401808273ffffffffffffffffffffffffffffffffffffffff1673ffffffffffffffffffffffffffffffffffffffff16815260200191505060206040518083038186803b158015610bc257600080fd5b505afa158015610bd6573d6000803e3d6000fd5b505050506040513d6020811015610bec57600080fd5b81019080805190602001909291905050509050600081141515610c77576040517f08c379a00000000000000000000000000000000000000000000000000000000081526004018080602001828103825260148152602001807f53656e64696e672066756e6473206661696c656400000000000000000000000081525060200191505060405180910390fd5b5050808060010191505061084c565b5060003073ffffffffffffffffffffffffffffffffffffffff163190506000809054906101000a900473ffffffffffffffffffffffffffffffffffffffff1673ffffffffffffffffffffffffffffffffffffffff166108fc829081150290604051600060405180830381858888f19350505050158015610d0a573d6000803e3d6000fd5b506000809054906101000a900473ffffffffffffffffffffffffffffffffffffffff1673ffffffffffffffffffffffffffffffffffffffff167f8f3b727e48637f43f343f8d8784b607c693ca4e108ae5c1ac076f55ec8e7b8bb60405160405180910390a2609a60009054906101000a900460ff1615609a60006101000a81548160ff02191690831515021790555050565b6000600282606481101515610dad57fe5b0160009054906101000a900473ffffffffffffffffffffffffffffffffffffffff1673ffffffffffffffffffffffffffffffffffffffff166370a08231306040518263ffffffff167c0100000000000000000000000000000000000000000000000000000000028152600401808273ffffffffffffffffffffffffffffffffffffffff1673ffffffffffffffffffffffffffffffffffffffff16815260200191505060206040518083038186803b158015610e6757600080fd5b505afa158015610e7b573d6000803e3d6000fd5b505050506040513d6020811015610e9157600080fd5b81019080805190602001909291905050509050919050565b6000609954905090565b6000609854905090565b609a60009054906101000a900460ff16151515610f8e576040517f08c379a00000000000000000000000000000000000000000000000000000000081526004018080602001828103825260568152602001807f5468652066756e642069732064697361626c65642e20496620796f752061726581526020017f20746865206f776e657220796f752063616e2072652d656e61626c652074686581526020017f2066756e6420617420796f7572206f776e207269736b0000000000000000000081525060600191505060405180910390fd5b426098546099540110151561100b576040517f08c379a000000000000000000000000000000000000000000000000000000000815260040180806020018281038252601f8152602001807f526562616c616e636520706572696f6420686173206e6f74207061737365640081525060200191505060405180910390fd5b565b60008060009054906101000a900473ffffffffffffffffffffffffffffffffffffffff16905090565b609a60009054906101000a900460ff16151515611107576040517f08c379a00000000000000000000000000000000000000000000000000000000081526004018080602001828103825260568152602001807f5468652066756e642069732064697361626c65642e20496620796f752061726581526020017f20746865206f776e657220796f752063616e2072652d656e61626c652074686581526020017f2066756e6420617420796f7572206f776e207269736b0000000000000000000081525060600191505060405180910390fd5b6000809054906101000a900473ffffffffffffffffffffffffffffffffffffffff1673ffffffffffffffffffffffffffffffffffffffff163373ffffffffffffffffffffffffffffffffffffffff1614806111af5750600160009054906101000a900473ffffffffffffffffffffffffffffffffffffffff1673ffffffffffffffffffffffffffffffffffffffff163373ffffffffffffffffffffffffffffffffffffffff16145b1515611223576040517f08c379a000000000000000000000000000000000000000000000000000000000815260040180806020018281038252600d8152602001807f4163636573732044656e6965640000000000000000000000000000000000000081525060200191505060405180910390fd5b565b61122d61180d565b611235611831565b60026066816064806020026040519081016040528092919082606480156112a7576020028201915b8160009054906101000a900473ffffffffffffffffffffffffffffffffffffffff1673ffffffffffffffffffffffffffffffffffffffff168152602001906001019080831161125d575b505050505091508060648060200260405190810160405280929190826064801561130c576020028201916000905b82829054906101000a9004600f0b600f0b81526020019060100190602082600f010492830192600103820291508084116112d55790505b50505050509050915091509091565b609a60009054906101000a900460ff161515156113ec576040517f08c379a00000000000000000000000000000000000000000000000000000000081526004018080602001828103825260568152602001807f5468652066756e642069732064697361626c65642e20496620796f752061726581526020017f20746865206f776e657220796f752063616e2072652d656e61626c652074686581526020017f2066756e6420617420796f7572206f776e207269736b0000000000000000000081525060600191505060405180910390fd5b6000809054906101000a900473ffffffffffffffffffffffffffffffffffffffff1673ffffffffffffffffffffffffffffffffffffffff163373ffffffffffffffffffffffffffffffffffffffff161415156114b0576040517f08c379a000000000000000000000000000000000000000000000000000000000815260040180806020018281038252600d8152602001807f4163636573732044656e6965640000000000000000000000000000000000000081525060200191505060405180910390fd5b8060988190555050565b6000809054906101000a900473ffffffffffffffffffffffffffffffffffffffff1673ffffffffffffffffffffffffffffffffffffffff163373ffffffffffffffffffffffffffffffffffffffff1614806115625750600160009054906101000a900473ffffffffffffffffffffffffffffffffffffffff1673ffffffffffffffffffffffffffffffffffffffff163373ffffffffffffffffffffffffffffffffffffffff16145b15156115d6576040517f08c379a000000000000000000000000000000000000000000000000000000000815260040180806020018281038252600d8152602001807f4163636573732044656e6965640000000000000000000000000000000000000081525060200191505060405180910390fd5b6116b66002606480602002604051908101604052809291908260648015611648576020028201915b8160009054906101000a900473ffffffffffffffffffffffffffffffffffffffff1673ffffffffffffffffffffffffffffffffffffffff16815260200190600101908083116115fe575b505050505060666064806020026040519081016040528092919082606480156116ac576020028201916000905b82829054906101000a9004600f0b600f0b81526020019060100190602082600f010492830192600103820291508084116116755790505b5050505050610476565b565b600060985460995401905090565b8260648101928215611732579160200282015b828111156117315782518260006101000a81548173ffffffffffffffffffffffffffffffffffffffff021916908373ffffffffffffffffffffffffffffffffffffffff160217905550916020019190600101906116d9565b5b50905061173f9190611855565b5090565b8260646001016002900481019282156117fc5791602002820160005b838211156117be57835183826101000a8154816fffffffffffffffffffffffffffffffff0219169083600f0b6fffffffffffffffffffffffffffffffff1602179055509260200192601001602081600f0104928301926001030261175f565b80156117fa5782816101000a8154906fffffffffffffffffffffffffffffffff0219169055601001602081600f010492830192600103026117be565b505b5090506118099190611898565b5090565b610c8060405190810160405280606490602082028038833980820191505090505090565b610c8060405190810160405280606490602082028038833980820191505090505090565b61189591905b8082111561189157600081816101000a81549073ffffffffffffffffffffffffffffffffffffffff02191690555060010161185b565b5090565b90565b6118d491905b808211156118d057600081816101000a8154906fffffffffffffffffffffffffffffffff02191690555060010161189e565b5090565b9056fea165627a7a7230582062f2a182b43c9220a0d4848927263c56fe264a9817030fa08d7709db737562dc0029a165627a7a72305820a1f7a01518b30ca907392f6e07e075629e6694a8380746747a8275c786a8749a0029",
  "source": "pragma solidity 0.5.0;\n\nimport \"./Fund.sol\";\nimport \"./IFund.sol\";\n\ncontract FundFactory {\n    address private _owner;\n    address private _rebalancer;\n    //Starts at one becuse mapping of owner to fund will default to 0\n    uint256 private _fundNonce = 1;\n    struct AFund {\n        uint256 uid;\n        address fundAddress;\n        address owner;\n    }\n    mapping(uint256 => AFund) allFunds;\n    mapping(address => uint256[]) fundOwner;\n\n    event CreatedFund(address indexed owner, address indexed fund, uint256 indexed uid);\n    event AllFundsDeath(address indexed owner, address indexed fund);\n    event log(uint256 position);\n\n    constructor() \n        public \n    {\n        _owner = msg.sender;\n    }\n\n    /**\n        @return uint8: The last UID of a fund.\n        @notice The UIDs start at 1, not 0 because 0 is the \n            default value of mappings. \n     */\n    function getAllFundUids() \n        public\n        view\n        returns(uint256)\n    {\n        return _fundNonce - 1;\n    }\n\n    function getFundForOwner(address _fundOwner)\n        public\n        view\n        returns(uint256[] memory)\n    {\n        return fundOwner[_fundOwner];\n    }\n\n    function getFundDetails(uint256 _fundId)\n        public\n        view\n        returns(address, address)\n    {\n        return(\n            allFunds[_fundId].owner,\n            allFunds[_fundId].fundAddress\n        ); \n    }\n\n    function getFactoryOwner()\n        public\n        view\n        returns(address)\n    {\n        return(_owner);\n    }\n\n    function getRebabalncer()\n        public\n        view\n        returns(address)\n    {\n        return _rebalancer;\n    }\n\n    function updateRebalancer(address _newRebalancer) \n        public\n    {\n        require(msg.sender == _owner, \"Access Denied\");\n        _rebalancer = _newRebalancer;\n    }\n\n    function createFund(\n        address[100] memory _tokenAddresses,\n        int128[100] memory _percentages,\n        uint256 _rebalancePeriod\n    )\n        public\n        payable\n        returns(address, uint256)\n    {\n        Fund fund = new Fund(\n            _tokenAddresses,\n            _percentages,\n            msg.sender,\n            _rebalancePeriod\n        );\n        fund.init.value(msg.value)();\n        uint256 fundUid = _fundNonce;\n        allFunds[fundUid] = AFund({\n            uid: fundUid,\n            fundAddress: address(fund),\n            owner: msg.sender\n        });\n        fundOwner[msg.sender].push(fundUid);\n        _fundNonce = _fundNonce + 1;\n        emit CreatedFund(msg.sender, address(fund), fundUid);\n        return(address(fund), fundUid);\n    }\n\n    function killFunds()\n        public\n    {\n        require(msg.sender == _owner, \"Access Denied\");\n        //TODO: add check for tx limits if huge for loop\n        for(uint i = 1; i < _fundNonce; i++) {\n            IFund(allFunds[i].fundAddress).killFund();\n            emit AllFundsDeath(allFunds[i].owner, allFunds[i].fundAddress);\n        }\n    }\n\n    //TODO: intergrate : deploying the rebalancer, updating the rebalancer\n}",
  "sourcePath": "/Users/chris/Projects/snap/contracts/FundFactory.sol",
  "compiler": {
    "name": "solc",
    "version": "0.5.0+commit.1d4f565a.Emscripten.clang"
  },
  "schemaVersion": "3.0.6",
  "updatedAt": "2019-04-21T03:55:51.290Z",
  "devdoc": {
    "methods": {
      "getAllFundUids()": {
        "return": "uint8: The last UID of a fund."
      }
    }
  },
  "userdoc": {
    "methods": {
      "getAllFundUids()": {
        "notice": "The UIDs start at 1, not 0 because 0 is the  default value of mappings. "
      }
    }
  }
}