{
  "contractName": "Fund",
  "abi": [
    {
      "inputs": [
        {
          "name": "_tokenAddresses",
          "type": "address[100]"
        },
        {
          "name": "_percentages",
          "type": "int128[100]"
        },
        {
          "name": "_fundOwner",
          "type": "address"
        },
        {
          "name": "_rebalance",
          "type": "uint256"
        }
      ],
      "payable": false,
      "stateMutability": "nonpayable",
      "type": "constructor"
    },
    {
      "payable": true,
      "stateMutability": "payable",
      "type": "fallback"
    },
    {
      "anonymous": false,
      "inputs": [],
      "name": "AddTokens",
      "type": "event"
    },
    {
      "anonymous": false,
      "inputs": [
        {
          "indexed": true,
          "name": "owner",
          "type": "address"
        }
      ],
      "name": "FundDeath",
      "type": "event"
    },
    {
      "constant": false,
      "inputs": [],
      "name": "init",
      "outputs": [],
      "payable": true,
      "stateMutability": "payable",
      "type": "function"
    },
    {
      "constant": true,
      "inputs": [],
      "name": "getOwner",
      "outputs": [
        {
          "name": "",
          "type": "address"
        }
      ],
      "payable": false,
      "stateMutability": "view",
      "type": "function"
    },
    {
      "constant": true,
      "inputs": [],
      "name": "getTokens",
      "outputs": [
        {
          "name": "",
          "type": "address[100]"
        },
        {
          "name": "",
          "type": "int128[100]"
        }
      ],
      "payable": false,
      "stateMutability": "view",
      "type": "function"
    },
    {
      "constant": true,
      "inputs": [],
      "name": "getRebalancePeriod",
      "outputs": [
        {
          "name": "",
          "type": "uint256"
        }
      ],
      "payable": false,
      "stateMutability": "view",
      "type": "function"
    },
    {
      "constant": true,
      "inputs": [],
      "name": "getLastRebalance",
      "outputs": [
        {
          "name": "",
          "type": "uint256"
        }
      ],
      "payable": false,
      "stateMutability": "view",
      "type": "function"
    },
    {
      "constant": true,
      "inputs": [],
      "name": "getNextRebalance",
      "outputs": [
        {
          "name": "",
          "type": "uint256"
        }
      ],
      "payable": false,
      "stateMutability": "view",
      "type": "function"
    },
    {
      "constant": true,
      "inputs": [
        {
          "name": "_tokenPosition",
          "type": "uint256"
        }
      ],
      "name": "getBalanceOfToken",
      "outputs": [
        {
          "name": "",
          "type": "uint256"
        }
      ],
      "payable": false,
      "stateMutability": "view",
      "type": "function"
    },
    {
      "constant": false,
      "inputs": [
        {
          "name": "_newPeriod",
          "type": "uint256"
        }
      ],
      "name": "setNewRebalancePeriod",
      "outputs": [],
      "payable": false,
      "stateMutability": "nonpayable",
      "type": "function"
    },
    {
      "constant": false,
      "inputs": [
        {
          "name": "_tokenAddresses",
          "type": "address[100]"
        },
        {
          "name": "_percentages",
          "type": "int128[100]"
        }
      ],
      "name": "addTokens",
      "outputs": [],
      "payable": false,
      "stateMutability": "nonpayable",
      "type": "function"
    },
    {
      "constant": false,
      "inputs": [],
      "name": "rebalance",
      "outputs": [],
      "payable": false,
      "stateMutability": "nonpayable",
      "type": "function"
    },
    {
      "constant": false,
      "inputs": [],
      "name": "manualRebalance",
      "outputs": [],
      "payable": false,
      "stateMutability": "nonpayable",
      "type": "function"
    },
    {
      "constant": false,
      "inputs": [],
      "name": "killFund",
      "outputs": [],
      "payable": false,
      "stateMutability": "nonpayable",
      "type": "function"
    }
  ],
  "bytecode": "0x60806040526000609a60006101000a81548160ff0219169083151502179055503480156200002c57600080fd5b506040516119408062001c2183398101806040526119408110156200005057600080fd5b81019080919082610c8001919082610c8001805190602001909291908051906020019092919050505033600160006101000a81548173ffffffffffffffffffffffffffffffffffffffff021916908373ffffffffffffffffffffffffffffffffffffffff160217905550816000806101000a81548173ffffffffffffffffffffffffffffffffffffffff021916908373ffffffffffffffffffffffffffffffffffffffff160217905550806098819055508360029060646200011492919062000133565b5082606690606462000128929190620001b5565b50505050506200030e565b8260648101928215620001a2579160200282015b82811115620001a15782518260006101000a81548173ffffffffffffffffffffffffffffffffffffffff021916908373ffffffffffffffffffffffffffffffffffffffff1602179055509160200191906001019062000147565b5b509050620001b1919062000286565b5090565b826064600101600290048101928215620002735791602002820160005b838211156200023357835183826101000a8154816fffffffffffffffffffffffffffffffff0219169083600f0b6fffffffffffffffffffffffffffffffff1602179055509260200192601001602081600f01049283019260010302620001d2565b8015620002715782816101000a8154906fffffffffffffffffffffffffffffffff0219169055601001602081600f0104928301926001030262000233565b505b509050620002829190620002cc565b5090565b620002c991905b80821115620002c557600081816101000a81549073ffffffffffffffffffffffffffffffffffffffff0219169055506001016200028d565b5090565b90565b6200030b91905b808211156200030757600081816101000a8154906fffffffffffffffffffffffffffffffff021916905550600101620002d3565b5090565b90565b611903806200031e6000396000f3fe6080604052600436106100ba576000357c0100000000000000000000000000000000000000000000000000000000900463ffffffff16806302367bca1461018d57806307040ea6146102435780630f1859361461025a57806342595248146102a9578063615bab6e146102d45780637d7c2a1c146102ff578063893d20e8146103165780639f85adf11461036d578063aa6ca80814610384578063c9bf656114610406578063e1c7392a14610441578063e59931bc1461044b575b609a60009054906101000a900460ff1615151561018b576040517f08c379a00000000000000000000000000000000000000000000000000000000081526004018080602001828103825260568152602001807f5468652066756e642069732064697361626c65642e20496620796f752061726581526020017f20746865206f776e657220796f752063616e2072652d656e61626c652074686581526020017f2066756e6420617420796f7572206f776e207269736b0000000000000000000081525060600191505060405180910390fd5b005b34801561019957600080fd5b5061024160048036036119008110156101b157600080fd5b8101908080610c8001906064806020026040519081016040528092919082606460200280828437600081840152601f19601f820116905080830192505050505050919291929080610c8001906064806020026040519081016040528092919082606460200280828437600081840152601f19601f8201169050808301925050505050509192919290505050610476565b005b34801561024f57600080fd5b50610258610729565b005b34801561026657600080fd5b506102936004803603602081101561027d57600080fd5b8101908080359060200190929190505050610d9c565b6040518082815260200191505060405180910390f35b3480156102b557600080fd5b506102be610ea9565b6040518082815260200191505060405180910390f35b3480156102e057600080fd5b506102e9610eb3565b6040518082815260200191505060405180910390f35b34801561030b57600080fd5b50610314610ebd565b005b34801561032257600080fd5b5061032b61100d565b604051808273ffffffffffffffffffffffffffffffffffffffff1673ffffffffffffffffffffffffffffffffffffffff16815260200191505060405180910390f35b34801561037957600080fd5b50610382611036565b005b34801561039057600080fd5b50610399611225565b6040518083606460200280838360005b838110156103c45780820151818401526020810190506103a9565b5050505090500182606460200280838360005b838110156103f25780820151818401526020810190506103d7565b505050509050019250505060405180910390f35b34801561041257600080fd5b5061043f6004803603602081101561042957600080fd5b810190808035906020019092919050505061131b565b005b6104496114ba565b005b34801561045757600080fd5b506104606116b8565b6040518082815260200191505060405180910390f35b609a60009054906101000a900460ff16151515610547576040517f08c379a00000000000000000000000000000000000000000000000000000000081526004018080602001828103825260568152602001807f5468652066756e642069732064697361626c65642e20496620796f752061726581526020017f20746865206f776e657220796f752063616e2072652d656e61626c652074686581526020017f2066756e6420617420796f7572206f776e207269736b0000000000000000000081525060600191505060405180910390fd5b6000809054906101000a900473ffffffffffffffffffffffffffffffffffffffff1673ffffffffffffffffffffffffffffffffffffffff163373ffffffffffffffffffffffffffffffffffffffff1614806105ef5750600160009054906101000a900473ffffffffffffffffffffffffffffffffffffffff1673ffffffffffffffffffffffffffffffffffffffff163373ffffffffffffffffffffffffffffffffffffffff16145b1515610663576040517f08c379a000000000000000000000000000000000000000000000000000000000815260040180806020018281038252600d8152602001807f4163636573732044656e6965640000000000000000000000000000000000000081525060200191505060405180910390fd5b600081600060648110151561067457fe5b6020020151600f0b141515156106f2576040517f08c379a000000000000000000000000000000000000000000000000000000000815260040180806020018281038252601e8152602001807f45746820616d6f756e7420696e2066756e642063616e6e6f742062652030000081525060200191505060405180910390fd5b8160029060646107039291906116c6565b50806066906064610715929190611743565b5061071e611036565b426099819055505050565b6000809054906101000a900473ffffffffffffffffffffffffffffffffffffffff1673ffffffffffffffffffffffffffffffffffffffff163373ffffffffffffffffffffffffffffffffffffffff1614806107d15750600160009054906101000a900473ffffffffffffffffffffffffffffffffffffffff1673ffffffffffffffffffffffffffffffffffffffff163373ffffffffffffffffffffffffffffffffffffffff16145b1515610845576040517f08c379a000000000000000000000000000000000000000000000000000000000815260040180806020018281038252600d8152602001807f4163636573732044656e6965640000000000000000000000000000000000000081525060200191505060405180910390fd5b6000600190505b6064811015610c8657600073ffffffffffffffffffffffffffffffffffffffff1660028260648110151561087c57fe5b0160009054906101000a900473ffffffffffffffffffffffffffffffffffffffff1673ffffffffffffffffffffffffffffffffffffffff1614156108bf57610c86565b60006002826064811015156108d057fe5b0160009054906101000a900473ffffffffffffffffffffffffffffffffffffffff1673ffffffffffffffffffffffffffffffffffffffff166370a08231306040518263ffffffff167c0100000000000000000000000000000000000000000000000000000000028152600401808273ffffffffffffffffffffffffffffffffffffffff1673ffffffffffffffffffffffffffffffffffffffff16815260200191505060206040518083038186803b15801561098a57600080fd5b505afa15801561099e573d6000803e3d6000fd5b505050506040513d60208110156109b457600080fd5b810190808051906020019092919050505090506002826064811015156109d657fe5b0160009054906101000a900473ffffffffffffffffffffffffffffffffffffffff1673ffffffffffffffffffffffffffffffffffffffff1663a9059cbb6000809054906101000a900473ffffffffffffffffffffffffffffffffffffffff16836040518363ffffffff167c0100000000000000000000000000000000000000000000000000000000028152600401808373ffffffffffffffffffffffffffffffffffffffff1673ffffffffffffffffffffffffffffffffffffffff16815260200182815260200192505050602060405180830381600087803b158015610abb57600080fd5b505af1158015610acf573d6000803e3d6000fd5b505050506040513d6020811015610ae557600080fd5b8101908080519060200190929190505050506000600283606481101515610b0857fe5b0160009054906101000a900473ffffffffffffffffffffffffffffffffffffffff1673ffffffffffffffffffffffffffffffffffffffff166370a08231306040518263ffffffff167c0100000000000000000000000000000000000000000000000000000000028152600401808273ffffffffffffffffffffffffffffffffffffffff1673ffffffffffffffffffffffffffffffffffffffff16815260200191505060206040518083038186803b158015610bc257600080fd5b505afa158015610bd6573d6000803e3d6000fd5b505050506040513d6020811015610bec57600080fd5b81019080805190602001909291905050509050600081141515610c77576040517f08c379a00000000000000000000000000000000000000000000000000000000081526004018080602001828103825260148152602001807f53656e64696e672066756e6473206661696c656400000000000000000000000081525060200191505060405180910390fd5b5050808060010191505061084c565b5060003073ffffffffffffffffffffffffffffffffffffffff163190506000809054906101000a900473ffffffffffffffffffffffffffffffffffffffff1673ffffffffffffffffffffffffffffffffffffffff166108fc829081150290604051600060405180830381858888f19350505050158015610d0a573d6000803e3d6000fd5b506000809054906101000a900473ffffffffffffffffffffffffffffffffffffffff1673ffffffffffffffffffffffffffffffffffffffff167f8f3b727e48637f43f343f8d8784b607c693ca4e108ae5c1ac076f55ec8e7b8bb60405160405180910390a2609a60009054906101000a900460ff1615609a60006101000a81548160ff02191690831515021790555050565b6000600282606481101515610dad57fe5b0160009054906101000a900473ffffffffffffffffffffffffffffffffffffffff1673ffffffffffffffffffffffffffffffffffffffff166370a08231306040518263ffffffff167c0100000000000000000000000000000000000000000000000000000000028152600401808273ffffffffffffffffffffffffffffffffffffffff1673ffffffffffffffffffffffffffffffffffffffff16815260200191505060206040518083038186803b158015610e6757600080fd5b505afa158015610e7b573d6000803e3d6000fd5b505050506040513d6020811015610e9157600080fd5b81019080805190602001909291905050509050919050565b6000609954905090565b6000609854905090565b609a60009054906101000a900460ff16151515610f8e576040517f08c379a00000000000000000000000000000000000000000000000000000000081526004018080602001828103825260568152602001807f5468652066756e642069732064697361626c65642e20496620796f752061726581526020017f20746865206f776e657220796f752063616e2072652d656e61626c652074686581526020017f2066756e6420617420796f7572206f776e207269736b0000000000000000000081525060600191505060405180910390fd5b426098546099540110151561100b576040517f08c379a000000000000000000000000000000000000000000000000000000000815260040180806020018281038252601f8152602001807f526562616c616e636520706572696f6420686173206e6f74207061737365640081525060200191505060405180910390fd5b565b60008060009054906101000a900473ffffffffffffffffffffffffffffffffffffffff16905090565b609a60009054906101000a900460ff16151515611107576040517f08c379a00000000000000000000000000000000000000000000000000000000081526004018080602001828103825260568152602001807f5468652066756e642069732064697361626c65642e20496620796f752061726581526020017f20746865206f776e657220796f752063616e2072652d656e61626c652074686581526020017f2066756e6420617420796f7572206f776e207269736b0000000000000000000081525060600191505060405180910390fd5b6000809054906101000a900473ffffffffffffffffffffffffffffffffffffffff1673ffffffffffffffffffffffffffffffffffffffff163373ffffffffffffffffffffffffffffffffffffffff1614806111af5750600160009054906101000a900473ffffffffffffffffffffffffffffffffffffffff1673ffffffffffffffffffffffffffffffffffffffff163373ffffffffffffffffffffffffffffffffffffffff16145b1515611223576040517f08c379a000000000000000000000000000000000000000000000000000000000815260040180806020018281038252600d8152602001807f4163636573732044656e6965640000000000000000000000000000000000000081525060200191505060405180910390fd5b565b61122d61180d565b611235611831565b60026066816064806020026040519081016040528092919082606480156112a7576020028201915b8160009054906101000a900473ffffffffffffffffffffffffffffffffffffffff1673ffffffffffffffffffffffffffffffffffffffff168152602001906001019080831161125d575b505050505091508060648060200260405190810160405280929190826064801561130c576020028201916000905b82829054906101000a9004600f0b600f0b81526020019060100190602082600f010492830192600103820291508084116112d55790505b50505050509050915091509091565b609a60009054906101000a900460ff161515156113ec576040517f08c379a00000000000000000000000000000000000000000000000000000000081526004018080602001828103825260568152602001807f5468652066756e642069732064697361626c65642e20496620796f752061726581526020017f20746865206f776e657220796f752063616e2072652d656e61626c652074686581526020017f2066756e6420617420796f7572206f776e207269736b0000000000000000000081525060600191505060405180910390fd5b6000809054906101000a900473ffffffffffffffffffffffffffffffffffffffff1673ffffffffffffffffffffffffffffffffffffffff163373ffffffffffffffffffffffffffffffffffffffff161415156114b0576040517f08c379a000000000000000000000000000000000000000000000000000000000815260040180806020018281038252600d8152602001807f4163636573732044656e6965640000000000000000000000000000000000000081525060200191505060405180910390fd5b8060988190555050565b6000809054906101000a900473ffffffffffffffffffffffffffffffffffffffff1673ffffffffffffffffffffffffffffffffffffffff163373ffffffffffffffffffffffffffffffffffffffff1614806115625750600160009054906101000a900473ffffffffffffffffffffffffffffffffffffffff1673ffffffffffffffffffffffffffffffffffffffff163373ffffffffffffffffffffffffffffffffffffffff16145b15156115d6576040517f08c379a000000000000000000000000000000000000000000000000000000000815260040180806020018281038252600d8152602001807f4163636573732044656e6965640000000000000000000000000000000000000081525060200191505060405180910390fd5b6116b66002606480602002604051908101604052809291908260648015611648576020028201915b8160009054906101000a900473ffffffffffffffffffffffffffffffffffffffff1673ffffffffffffffffffffffffffffffffffffffff16815260200190600101908083116115fe575b505050505060666064806020026040519081016040528092919082606480156116ac576020028201916000905b82829054906101000a9004600f0b600f0b81526020019060100190602082600f010492830192600103820291508084116116755790505b5050505050610476565b565b600060985460995401905090565b8260648101928215611732579160200282015b828111156117315782518260006101000a81548173ffffffffffffffffffffffffffffffffffffffff021916908373ffffffffffffffffffffffffffffffffffffffff160217905550916020019190600101906116d9565b5b50905061173f9190611855565b5090565b8260646001016002900481019282156117fc5791602002820160005b838211156117be57835183826101000a8154816fffffffffffffffffffffffffffffffff0219169083600f0b6fffffffffffffffffffffffffffffffff1602179055509260200192601001602081600f0104928301926001030261175f565b80156117fa5782816101000a8154906fffffffffffffffffffffffffffffffff0219169055601001602081600f010492830192600103026117be565b505b5090506118099190611898565b5090565b610c8060405190810160405280606490602082028038833980820191505090505090565b610c8060405190810160405280606490602082028038833980820191505090505090565b61189591905b8082111561189157600081816101000a81549073ffffffffffffffffffffffffffffffffffffffff02191690555060010161185b565b5090565b90565b6118d491905b808211156118d057600081816101000a8154906fffffffffffffffffffffffffffffffff02191690555060010161189e565b5090565b9056fea165627a7a7230582062f2a182b43c9220a0d4848927263c56fe264a9817030fa08d7709db737562dc0029",
  "source": "pragma solidity 0.5.0;\n\nimport \"./IFund.sol\";\nimport \"./FundFactory.sol\";\nimport \"./IERC20.sol\";\nimport \"./IRebalancer.sol\";\n\n/**\n    @author nicca42\n    This contract stores the token addresses and percentages. \n    This contract allows for a fund rebalance by calling the \n    `rebalancer` vyper contract, which will take in the token\n    addresses and percentages and execute the needed trades to\n    re-balance the fund.\n*/\ncontract Fund is IFund {\n    address payable _owner;\n    address private _factory;\n    address[100] private _tokens;\n    int128[100] private _distribution;\n    uint256 private _rebalancePeriod;\n    uint256 private _lastRebalance;\n    bool private _disabled = false;\n\n    modifier notDisabled() {\n        require(\n            !_disabled, \n            \"The fund is disabled. If you are the owner you can re-enable the fund at your own risk\"\n        );\n        _;\n    }\n\n    modifier isOwner() {\n        require(msg.sender == _owner, \"Access Denied\");\n        _;\n    }\n\n    modifier isAdmin() {\n        require(msg.sender == _owner || msg.sender == _factory, \"Access Denied\");\n        _;\n    }\n\n    event AddTokens();\n    event FundDeath(address indexed owner);\n\n    constructor(\n        address[100] memory _tokenAddresses, \n        int128[100] memory _percentages, \n        address payable _fundOwner,\n        uint256 _rebalance\n    ) \n        public\n    {\n        _factory = msg.sender;\n        _owner = _fundOwner;\n        _rebalancePeriod = _rebalance;\n        _tokens = _tokenAddresses;\n        _distribution = _percentages;\n    }\n\n    function init()\n        public\n        payable\n        isAdmin()\n    {\n        addTokens(\n            _tokens,\n            _distribution\n        );\n    }\n\n    /**\n        @return address: The owner of the fund\n     */\n    function getOwner()\n        public\n        view\n        returns(address)\n    {\n        return _owner;\n    }\n\n    /**\n        @return address[] int128[]: The array of token addresses\n            and token percentages as decimals.\n     */\n    function getTokens()\n        public\n        view\n        returns(address[100] memory, int128[100] memory)\n    {\n        return(_tokens, _distribution);\n    }\n\n    function getRebalancePeriod()\n        public\n        view\n        returns(uint256)\n    {\n        return _rebalancePeriod;\n    }\n\n    function getLastRebalance()\n        public\n        view\n        returns(uint256)\n    {\n        return _lastRebalance;\n    }\n\n    function getNextRebalance()\n        public\n        view\n        returns(uint256)\n    {\n        return _lastRebalance + _rebalancePeriod;\n    }\n\n    function getBalanceOfToken(uint256 _tokenPosition) \n        public\n        view\n        returns(uint256)\n    {\n        return IERC20(_tokens[_tokenPosition]).balanceOf(address(this));\n    }\n\n    function setNewRebalancePeriod(uint256 _newPeriod)\n        public\n        notDisabled()\n        isOwner()\n    {\n        _rebalancePeriod = _newPeriod;\n    }\n\n    /**\n        param _tokenAddresses: The array of token addresses.\n            The first position in the array should be a 0x0 address\n            as this position represents Ether.\n        param _percentages: The array of percentages as decimals.\n            The first position (pos[0]) in the array represents \n            the Eth percentage the fund will hold.\n        @notice This function will overried all previously \n            listed tokens, so should you want to add or remove \n            a token, simply omit or add the address and decimal \n            percentage to the array.\n        @dev Overrieds previous storage. Can only be called by fund\n            owner.\n     */\n    function addTokens(\n        address[100] memory _tokenAddresses, \n        int128[100] memory _percentages\n    ) \n        public\n        notDisabled()\n        isAdmin()\n    {\n        require(_percentages[0] != 0, \"Eth amount in fund cannot be 0\");\n        _tokens = _tokenAddresses;\n        _distribution = _percentages;\n        manualRebalance();\n        _lastRebalance = now;\n    }\n\n    function rebalance()\n        public\n        notDisabled()\n    {\n        require(_lastRebalance + _rebalancePeriod < now, \"Rebalance period has not passed\");\n        //TODO: call rebalancer for trade orders\n        //TODO: call uniswap and make trades \n    }\n\n    function manualRebalance()\n        public\n        notDisabled()\n        isAdmin()\n    {\n        //TODO: call rebalancer for trade orders\n        //TODO: call uniswap and make trades \n    }\n\n    /**\n        @notice Allows admins (the owner and factory) to disable the\n            fund. This function sends all the owned tokens (that the fund \n            knows of) to the owner, then sends all the Eth the fund owns.\n        @dev Sends the balanceOf all listed tokens to owner. Emits FundDeath.\n            The factory is emabled to use this function incase of \n            vulnrability.\n     */\n    function killFund()\n        public\n        isAdmin()\n    {\n        for(uint i = 1; i < _tokens.length; i++) {\n            if(_tokens[i] == address(0x0)) {\n                break;\n            }\n            uint256 balance = IERC20(_tokens[i]).balanceOf(address(this));\n            IERC20(_tokens[i]).transfer(_owner, balance);\n            uint256 balanceAfter = IERC20(_tokens[i]).balanceOf(address(this));\n            require(balanceAfter == 0, \"Sending funds failed\");\n        } \n        uint256 amount = address(this).balance;\n        _owner.transfer(amount);\n        emit FundDeath(_owner);\n        _disabled = !_disabled;\n    }\n\n    /**\n        @notice Allows for Eth to be deposited to the fund\n     */\n    function() \n        external \n        payable \n        notDisabled()\n    { \n        \n    }\n}",
  "sourcePath": "/Users/chris/Projects/snap/contracts/Fund.sol",
  "compiler": {
    "name": "solc",
    "version": "0.5.0+commit.1d4f565a.Emscripten.clang"
  },
  "schemaVersion": "3.0.6",
  "updatedAt": "2019-04-21T03:55:51.288Z",
  "devdoc": {
    "author": "nicca42 This contract stores the token addresses and percentages.  This contract allows for a fund rebalance by calling the  `rebalancer` vyper contract, which will take in the token addresses and percentages and execute the needed trades to re-balance the fund.",
    "methods": {
      "addTokens(address[100],int128[100])": {
        "details": "Overrieds previous storage. Can only be called by fund owner."
      },
      "getOwner()": {
        "return": "address: The owner of the fund"
      },
      "getTokens()": {
        "return": "address[] int128[]: The array of token addresses and token percentages as decimals."
      },
      "killFund()": {
        "details": "Sends the balanceOf all listed tokens to owner. Emits FundDeath. The factory is emabled to use this function incase of  vulnrability."
      }
    }
  },
  "userdoc": {
    "methods": {
      "addTokens(address[100],int128[100])": {
        "notice": "param _tokenAddresses: The array of token addresses. The first position in the array should be a 0x0 address as this position represents Ether. param _percentages: The array of percentages as decimals. The first position (pos[0]) in the array represents  the Eth percentage the fund will hold.This function will overried all previously  listed tokens, so should you want to add or remove  a token, simply omit or add the address and decimal  percentage to the array."
      },
      "killFund()": {
        "notice": "Allows admins (the owner and factory) to disable the fund. This function sends all the owned tokens (that the fund  knows of) to the owner, then sends all the Eth the fund owns."
      }
    }
  }
}